:060000000A128A11F02F24
:100EC40071087004031908000130F0020030031C9B
:100ED400F103F102622F3F3406345B344F3466343D
:100EE4006D347D3407347F346F3477347C34393453
:100EF4005E34793471347E088A007F0882007D274D
:100F04000A128A118000840A04087D060319003439
:100F1400FF0A0319FE0A812F7308720403190800DB
:100F24002C30F0000130F1000A128A1162270A12F3
:100F34008A110130F2020030031CF303F3028E2FF6
:100F44007508740403190800E830F2000330F30054
:100F54000A128A118E270A128A110130F402003013
:100F6400031CF503F502A22F203084003130F60073
:100F74000408F7001030F800760884008313000892
:100F8400F900F60A7708840079088000F70AF80B5C
:100F9400BE2F83120313B001831603138601870146
:100FA4008312B001103030020318D22F01308700B1
:100FB4003008203E84008313000886000130F400CA
:100FC4000030F5000A128A11A2270A128A11013090
:100FD400F600760883120313B007D42F831341302D
:100FE400FD000730FE006D30FF00313084000A122E
:0C0FF4008A11812783010A128A11B62F8E
:02400E00BAFFF7
:00000001FF
