:100000000C942A000C9447000C9447000C94470071
:100010000C9447000C9447000C9447000C94470044
:100020000C9447000C9447000C9447000C94470034
:100030000C9447000C9447000C9447000C94470024
:100040000C9447000C9447000C9447000C94470014
:100050000C94470011241FBECFE5D4E0DEBFCDBF16
:1000600010E0A0E6B0E0E6E1F6E002C005900D92F7
:10007000A237B107D9F710E0A2E7B0E001C01D92A6
:10008000A737B107E1F70E94C0020C9409030C9452
:1000900000000AC02FEF3FEB41E2215030404040CA
:1000A000E1F700C0000001970097A1F70895A79815
:1000B0009598969A979885E28A95F1F7979A95E29E
:1000C0009A95F1F783B390917600943041F4979824
:1000D00095E29A95F1F7979A95E29A95F1F787FD4F
:1000E000E9CFA79A089595989698979A85E28A9568
:1000F000F1F797980895959A9698979A85E28A9538
:10010000F1F797980895982F84FF02C0AC9A01C028
:10011000AC9895FF02C0AD9A01C0AD9896FF02C0A1
:10012000AE9A01C0AE9887FF02C0AF9A0895AF980B
:100130000895CF93C82F0E94570080917600883091
:1001400011F4C5BB0CC0843061F48C2F0E94830075
:100150000E9473008C2F8295807F0E9483000E94F2
:100160007300CF910895809173008F5F8093730027
:100170001092720090917400981718F481E08093A7
:100180007300E0917300F0E0E05AFF4F80810E941D
:100190009900089590917400981758F01092720089
:1001A00080937300E82FF0E0E05AFF4F80810E94B7
:1001B0009900089581E00E94990081E00E94CA00A0
:1001C00008959FEF94BB91BB809376004093750098
:1001D00060937400633040F04F70842F8057809399
:1001E00063004053409364008FEF9FE5A3E081508C
:1001F0009040A040E1F700C0000080917600883078
:1002000011F488E332C0843091F580E30E948300CA
:100210000E9473008FEF9FE5A3E081509040A040C3
:10022000E1F700C0000080E30E9483000E94730099
:10023000A8E2B2E01197F1F700C0000080E30E944D
:1002400083000E94730088E292E00197F1F700C0FA
:10025000000080E20E9483000E947300A8E2B2E0E6
:100260001197F1F700C0000088E20E9499008EE02B
:100270000E9499000E94DA000895CF93C82F9091B0
:10028000720080917500981710F4CA3021F40E9412
:10029000B300CA30D9F00E945700809176008830B0
:1002A00011F4C5BB0CC0843061F48C2F0E94830014
:1002B0000E947B008C2F8295807F0E9483000E9489
:1002C0007B00809172008F5F80937200CF910895C0
:1002D000CF93DF93EC0102C00E943D0189918823F6
:1002E000D9F7DF91CF9108958F929F92AF92BF92ED
:1002F000EF92FF920F931F93CF93DF93CDB7DEB7AB
:100300002A970FB6F894DEBF0FBECDBFDC01CB013C
:10031000042F0097A105B10559F07E010894E11C56
:10032000F11C10E02AE0822E912CA12CB12C22C0CD
:10033000FE01319610E002C011921F5F101729F1E3
:100340001A30D1F722C00097A105B10559F0BC01C0
:10035000CD01A50194010E94E702F7016083C90164
:10036000DA0104C00B3088F4F70110821F5F089493
:10037000E11CF11C101739F708C0FE01E10FF11D57
:100380008081805D0E943D0111501123B1F72A96B2
:100390000FB6F894DEBF0FBECDBFDF91CF911F9196
:1003A0000F91FF90EF90BF90AF909F908F90089526
:1003B000AF92BF92CF92DF92EF92FF920F931F9373
:1003C000CF93DF9300D0CDB7DEB79E012F5E3F4FB6
:1003D0000F851889C3C0853209F0B6C0580108944A
:1003E000A11CB11CF8018181982F90539A3090F490
:1003F000F50140E009C0842F880F482F440F440FB7
:10040000480F490F818131965F01982F90539A30A0
:1004100090F301C04FEF883509F481C08935C0F4ED
:10042000843409F44BC0853448F4823409F477C02D
:10043000833428F5853209F08EC07EC0833509F4F7
:1004400071C0853509F45DC0863409F084C067C089
:10045000863609F464C0873640F4833681F08436EA
:10046000B1F0823609F077C057C0853709F440C033
:10047000883709F451C0833709F06DC053C0890132
:100480000E5F1F4FF90180810E943D0153C0890119
:100490000E5F1F4FF901C080D180D7FE09C0D094F4
:1004A000C194D108D3948DE249830E943D014981D2
:1004B000B601882777FD8095982F2BC089010C5FA6
:1004C0001F4FF901C080D180E280F380F7FE0DC09C
:1004D000F094E094D094C094C11CD11CE11CF11C98
:1004E0008DE249830E943D014981C701B60111C0D7
:1004F00089010E5F1F4FF9016081718180E090E0FA
:1005000008C089010C5F1F4FF901608171818281F0
:1005100093810E9474010EC02E5F3F4F1CC02C5F60
:100520003F4F19C089010E5F1F4FF90180819181F2
:100530000E94680198010FC085E229833A830E94D6
:100540003D0129813A8107C029833A830E943D01F8
:1005500058013A81298185010F5F1F4FF801808181
:10056000882309F038CF0F900F90DF91CF911F9122
:100570000F91FF90EF90DF90CF90BF90AF900895D4
:1005800088E062E040E10E94E10085E690E00E94A0
:100590006801CC24DD24760182E00E94CA00C701F4
:1005A000B60144E00E94740181E090E00E9449009D
:1005B0000894C11CD11CE11CF11C8FE0C81687E215
:1005C000D80680E0E80680E0F80631F7FFCFA1E228
:1005D0001A2EAA1BBB1BFD010DC0AA1FBB1FEE1FBD
:1005E000FF1FA217B307E407F50720F0A21BB30B08
:1005F000E40BF50B661F771F881F991F1A9469F784
:1006000060957095809590959B01AC01BD01CF01DF
:060610000895F894FFCFED
:100616008080C090D04C63645F436F756E74657262
:020626000000D2
:00000001FF
