:100000000C942A000C9447000C9447000C94470071
:100010000C9447000C9447000C9447000C94470044
:100020000C9447000C9447000C9447000C94470034
:100030000C9447000C9447000C9447000C94470024
:100040000C9447000C9447000C9447000C94470014
:100050000C94470011241FBECFE5D4E0DEBFCDBF16
:1000600010E0A0E6B0E0ECE7F6E002C005900D92EB
:10007000A038B107D9F710E0A0E8B0E001C01D92A8
:10008000A538B107E1F70E94D0020C943C030C9410
:10009000000081E886B917B8089587B9369A349B6D
:1000A000FECF24B135B1C901089544E151E009C042
:1000B00020E137E2FA013197F1F721503040D1F7D2
:1000C00001970097A9F70895A7989598969A309167
:1000D000840094E29798892F8A95F1F7979A892F4F
:1000E0008A95F1F723B3343041F49798892F8A9594
:1000F000F1F7979A892F8A95F1F727FDEBCFA79A09
:100100000895982F84FF02C0AC9A01C0AC9825B323
:1001100095FF02C0AD9A01C0AD9825B396FF02C00D
:10012000AE9A01C0AE9895B387FF02C0AF9A01C0E6
:10013000AF9885B3089595989698979A84E28A9592
:10014000F1F7979808951F93182F0E9464008091EB
:100150008400883011F415BB0CC0843061F4812F09
:100160000E9481000E949B00812F8295807F0E94C7
:1001700081000E949B001F910895809181008F5FF4
:10018000809381001092800090918200981718F45B
:1001900081E080938100E0918100F0E0E05AFF4F20
:1001A00080810E94A3000895E82F809182008E171D
:1001B00050F010928000E0938100F0E0E05AFF4F91
:1001C00080810E94A300089581E00E94A30081E045
:1001D0000E94D40008950F931F93582F8FEF84BB74
:1001E00081BB50938400409383006093820063300E
:1001F00040F0842F8F70805780936300805C8093E1
:10020000640088EE93E024E131E0F9013197F1F7E1
:100210000197D9F7583011F488E32BC0543059F5C1
:1002200080E30E9481000E949B0088EE93E024E11D
:1002300031E0F9013197F1F70197D9F780E30E9496
:1002400081000E949B0008E212E0C8010197F1F7CB
:1002500080E30E9481000E949B00C8010197F1F792
:1002600080E20E9481000E949B00C8010197F1F783
:1002700088E20E94A3008EE00E94A3000E94E40096
:100280001F910F910895959A9698979A84E28A956E
:10029000F1F7979808951F93182F909180008091FF
:1002A0008300981710F41A3021F40E94BD001A3010
:1002B000D9F00E94640080918400883011F415BB4D
:1002C0000CC0843061F4812F0E9481000E944301A0
:1002D000812F8295807F0E9481000E94430180913E
:1002E00080008F5F809380001F9108956F927F92AE
:1002F0009F92AF92BF92CF92DF92EF92FF920F93B5
:10030000DF93CF93CDB7DEB72A970FB6F894DEBF51
:100310000FBECDBF6B017C01942E61157105810567
:10032000910531F000E03E010894611C711C32C05F
:10033000FE01319600E002C011920F5F0915A8F589
:100340000A30D1F732C0C114D104E104F104D1F074
:100350005301A00EB11CC701B6012AE030E040E015
:1003600050E00E941A03F5016083C701B6012AE03C
:1003700030E040E050E00E941A03C901DA016C014C
:100380007D0107C0FAE0F91580F0F301E00FF11DDF
:1003900010820F5F0915B8F208C0FE01E00FF11DD1
:1003A0008081805D0E944B0101500023B1F72A96A5
:1003B0000FB6F894DEBF0FBECDBFCF91DF910F9186
:1003C000FF90EF90DF90CF90BF90AF909F907F9085
:1003D0006F9008958F929F92AF92BF92CF92DF92CB
:1003E000EF92FF920F931F93DF93CF93CDB7DEB7BA
:1003F00031E1E32EF12CEC0EFD1E8F8598899C01D6
:1004000059012AE0C22EBAC0853209F0B2C0089460
:10041000A11CB11CF5019081892F80538A3018F0FE
:10042000DD24DA940FC0DD2409C0DC9CD02C11241B
:10043000D80E0894A11CB11CF5019081892F80531E
:100440008A3098F3983509F486C09935C0F494340D
:1004500009F44AC0953448F4923409F47CC09334CA
:1004600028F5953209F087C083C0933509F47BC025
:10047000953509F460C0963409F07DC06FC096369A
:1004800009F46CC0973640F4933681F09436B1F09D
:10049000923609F070C05CC0953709F443C09837B4
:1004A00009F456C0933709F066C05DC087010E5F3E
:1004B0001F4FF70180810E944B0148C092E0892EB6
:1004C000912C8E0C9F1CF7010081118117FF06C033
:1004D000109501951F4F8DE20E944B01B8018827AE
:1004E00077FD8095982F19C084E0882E912C8E0C72
:1004F0009F1CF701E080F1800281138117FF0BC080
:1005000010950095F094E094E11CF11C011D111D63
:100510008DE20E944B01C801B7014D2D0E9476016A
:10052000740129C087010E5F1F4FF701608171813F
:1005300080E090E008C087010C5F1F4FF7016081E9
:100540007181828193814D2D0E947601780113C0C3
:1005500082E090E005C0E4E0F0E007C084E090E0D5
:10056000E80EF91E08C0E2E0F0E0EE0EFF1E03C048
:1005700085E20E944B010894A11CB11CF501808109
:10058000882309F041CFCF91DF911F910F91FF9008
:10059000EF90DF90CF90BF90AF909F908F90089595
:1005A000AF92BF92CF92DF92EF92FF920F931F9381
:1005B000CF93DF9388E062E040E10E94EB000E946D
:1005C0004900C5E6D0E080E00E944D005C0181E07A
:1005D0000E944D006C0182E00E944D007C0183E08E
:1005E0000E944D008C0181E00E94D4008DB79EB71F
:1005F0000A970FB6F8949EBF0FBE8DBFEDB7FEB73A
:100600003196ADB7BEB71296DC93CE931197B382F5
:10061000A282D582C482F782E682118700870E9477
:10062000EA018DB79EB70A960FB6F8949EBF0FBE2B
:100630008DBFC9CFA1E21A2EAA1BBB1BFD010DC0A5
:10064000AA1FBB1FEE1FFF1FA217B307E407F50782
:1006500020F0A21BB30BE40BF50B661F771F881F5E
:10066000991F1A9469F760957095809590959B01F4
:0C067000AC01BD01CF010895F894FFCF4C
:10067C008080C090D043303A25642043313A2564C1
:10068C00200A43323A25642043333A256420000083
:00000001FF
