:100000000C942A000C943F000C943F000C943F0089
:100010000C943F000C943F000C943F000C943F0064
:100020000C943F000C943F000C943F000C943F0054
:100030000C943F000C943F000C943F000C943F0044
:100040000C943F000C943F000C943F000C943F0034
:100050000C943F0011241FBECFE5D8E0DEBFCDBF1A
:1000600010E0A0E6B0E0E4EEF1E002C005900D92F1
:10007000A037B107D9F70E94CC000C94F0000C9483
:10008000000040E951E009C020E137E2FA01319770
:10009000F1F721503040D1F701970097A9F7089563
:1000A000EF92FF920F931F93DF93CF93CDB7DEB7FD
:1000B00060970FB6F894DEBF0FBECDBF9C01DE0186
:1000C0001196E0E6F0E080E101900D928150E1F7B9
:1000D000C90168EE73E00E94DC00482F192FC901A6
:1000E00068EE73E00E94DC009E012F5F3F4FF90134
:1000F000E60FF11DE080842F912F64E670E00E94EE
:10010000DC00082FF92E842F912F64E670E00E9406
:10011000DC00F901E60FF11D1081802F9F2D6AE0B0
:1001200070E00E94DC00F901E60FF11DE081802FF4
:100130009F2D6AE070E00E94DC00280F311DD9017C
:100140002C9160E0A1E040EA5FE0F2E074E038E08A
:10015000A5BBE8BACA010197F1F7F5BB18BBCA0104
:100160000197F1F775BBE8BBCA010197F1F735BB01
:1001700028BBCA010197F1F76F5F683C49F76096A9
:100180000FB6F894DEBF0FBECDBFCF91DF911F91A8
:100190000F91FF90EF900895CF93DF938FEF87BB80
:1001A00084BBC0E0D0E0CE010E945000219687E2DF
:1001B000C031D807B0F7F7CFAA1BBB1B51E107C06E
:1001C000AA1FBB1FA617B70710F0A61BB70B881FE7
:1001D000991F5A95A9F780959095BC01CD01089576
:0401E000F894FFCFC1
:1001E4003F065B4F666D7D077F6F777C395E797163
:00000001FF
