:100000000A128A11DE2F00308A000408840A82074F
:10001000003445346534703472346F346D342034B8
:10002000573472346934743465343A3420340034CB
:1000300045346534703472346F346D342034523446
:0C0040006534613464343A3420340034F8
:100A000080348034C0349034D034710870040319B9
:100A100008000130F0020030031CF103F102052D43
:100A200001300A128A111F260A128A1101300A1295
:100A30008A112F25080073087204031908002C304E
:100A4000F0000130F1000A128A1105250A128A11FC
:100A50000130F2020030031CF303F3021B2DF700F8
:100A60007708831203132B02031C0800FC0177088C
:100A7000F6007608FD007708263E84008313000800
:100A80000A128A111F2608000130F6007608FD07B9
:100A9000FC017D08831203132B020318512DFD0165
:100AA000FD0A7D08263E8400831300080A128A117D
:100AB0001F260800831203130814FD30F200720889
:100AC000880508150A30F0000030F1000A128A117A
:100AD0000525FB30F2007208831203138805080015
:100AE000831603170C18702D8C18702D7208831242
:100AF00003178D00831603170C143230F0000030FA
:100B0000F1000A128A110525831203170C08080048
:100B1000FE30F2007208831203138805FD30F200E4
:100B20007208880508150A30F0000030F1000A123A
:100B30008A110525FB30F200720883120313880521
:100B40000800FA007A0884000A128A1103200A12A7
:100B50008A110038031908007A0884000A128A11E1
:100B600003200A128A110A128A11BD250A128A115B
:100B70000130F9007908FA07A22DF8008312031357
:100B80002C087C020318C82D78080A3A031DCD2DC5
:100B90000A128A1144250A128A1178080A3A03199E
:100BA000080078080A128A1155260130F7007708E4
:100BB000FC070800831603170C18DA2D8C18DA2DA1
:100BC0007208831203178D0074088C0083160317B4
:100BD0000C1555308D00AA308D008C140A30F000B1
:100BE0000030F1000A128A110525831603170C1133
:100BF0000800F100711E002E831203130716062E43
:100C0000EF30F0007008831203138705F11E0A2EDF
:100C100087160E2EDF30F00070088705711F122E28
:100C20000717162EBF30F00070088705F11F1A2E27
:100C3000871708007F30F000700887050800F5006E
:100C40000A128A1129270A128A11831203132D0806
:100C5000083A031D312E750887000A128A1188256B
:100C60000800831203132D08043A031D08007508B9
:100C70000A128A11F9250A128A110A128A11882584
:100C80000A128A117508F40003300310F40DFF3EB8
:100C9000031D452E0310740D0A128A11F9250A123C
:100CA0008A110A128A1188250800F5000A128A1191
:100CB00029270A128A11831203132D08083A031DEB
:100CC000672E750887000A128A115A2508008312B8
:100CD00003132D08043A031D080075080A128A112F
:100CE000F9250A128A110A128A115A250A128A1142
:100CF0007508F40003300310F40DFF3E031D7B2E36
:100D00000310740D0A128A11F9250A128A110A12A7
:100D10008A115A25080030300A128A11F9250A1260
:100D20008A110A128A1188250A128A116430F20087
:100D30000030F3000A128A111B250A128A11303082
:100D40000A128A11F9250A128A110A128A118825B3
:100D50000A128A11C830F0000030F1000A128A111C
:100D600005250A128A1130300A128A11F9250A1251
:100D70008A110A128A1188250A128A11C830F000D5
:100D80000030F1000A128A1105250A128A1120305A
:100D90000A128A11F9250A128A110A128A11882563
:100DA0000A128A11C830F0000030F1000A128A11CC
:100DB00005250800FB0083160313870188017B08C3
:100DC000FA007A0883120313AD007908FA007A0852
:100DD000AC007808FA007A08AB0003307802031CF4
:100DE000FD2E79080F39903EFA007A08A90079089B
:100DF0000F39D03EFA007A08AA006430F2000030C1
:100E0000F3000A128A111B250A128A118312031396
:100E10002D08083A031D0E2F38301A2F83120313A2
:100E20002D08043A031D1F2F0A128A118B260A125D
:100E30008A1128300A128A111F260A128A110E30CE
:100E40000A128A111F260A128A110A128A11102503
:100E50000800831603138717FE30F200720883120E
:100E6000031388058814FB30F20072088312031301
:100E700088050A30F0000030F1000A128A110525B9
:100E80000A128A118312031308150A30F000003089
:100E9000F1000A128A1105250A128A110030831204
:100EA0000313871B0130F2007208F3002D08043A87
:100EB000031D732FFB30F200720888050A30F00022
:100EC0000030F1000A128A1105250A128A118312D4
:100ED000031308150A30F0000030F1000A128A11DD
:100EE00005250A128A11F308031D332F7F30F20003
:100EF0007208831603138705080083120313A401E5
:100F00005830A0002008A5000230A0002008F800FA
:100F10001030A1002108F90008300A128A11DA26DF
:100F20000A128A1101300A128A112F250A128A1117
:100F300001300A128A11A1250A128A1183120313A1
:100F400025080A128A11BD250A128A118312031379
:100F50002408A000A1012008F2002108F3002508C0
:100F6000A2002208F4000A128A11DA250A128A1154
:100F700002300A128A112F250A128A1110300A1221
:100F80008A11A1250A128A11831203132408A000D2
:100F9000A1012008F2002108F3000A128A1170252D
:100FA0000A128A1183120313A2002208A300230845
:100FB0000A128A11BD250A128A11922FFC01FD0125
:100FC0000A128A1100250A128A11A6000A128A1131
:100FD00001250A128A11A7000A128A1102250A1293
:100FE0008A11A8000A128A1103250A128A11A9007F
:100FF0000A128A110425AA0083010A128A117D2F80
:02400E00BAFFF7
:00000001FF
