:0C0DCE00EF4E6007EF1F70F81E80F5224A
:100D4F00AD07AC06ED4C600E7F707E00120DCEED40
:070D5F001D70F11C80EE2263
:100D6600AB07AA06EB4A600E7FE87E03120D4FEB37
:070D76001B70F11A80EE2250
:020BB4008D278B
:100BB600752BA0C3EE94405027EFF528EEF52912C9
:100BC6000CFEAF2B120CC0AF29120CC0AF28120CB2
:100BD600C0AF27120CC0120D1B7F0A7E00120D4FEC
:010BE60022EC
:100A3F00E4F52A752BA0C3EE94405034EFF527EE62
:100A4F00F528120CFEAF2B120CC0AF28120CC0AF42
:100A5F0027120CC0120CFEE52B4401FF120CC0E450
:100A6F00FF120B408F2A120D1B7F0A7E00120DCE34
:020A7F00AF2A9C
:010A81002252
:100B03008E228F238B248A258926AB24AA25A92606
:100B13001208F6FDAF23AE22120BB474012526F59D
:100B230026E43525F5250523E52370020522AB24AC
:0D0B3300AA25A92690FFFF12090F70CE22FF
:0A0BE7008E228F238B248A25892695
:100BF100AF23AE22120A3FAB24AA25A926EF120980
:100C01003C74012526F526E43525F5250523E52344
:070C110070020522EF70D90B
:010C180022B9
:070E0700D2867F017E00226C
:010E0E0022C1
:100CFE00C286D2877F017E00120DCE120E07120D14
:0D0D0E00CEC2877F017E00120DCEC286226C
:100D1B00C2867F017E00120DCEC2877F017E00123C
:0B0D2B000DCE120E07120DCED2872253
:020CC0008F2C77
:100CC200E4F52DE52C339287120DA4E52C25E0F5F1
:0D0CD2002C052DE52DC3940840E9020DA46A
:020B40008F2CF8
:100B4200E4F52ED287F52D7F017E00120DCE120E16
:100B520007120DCEE52E25E0F52EA287E433422EB4
:100B6200C286052DE52DC3940840DCE52CB40105B1
:0A0B7200120DEF8003120DF7AF2EF5
:010B7C002256
:100DA4007F017E00120DCE120E07120DCEC28622D6
:080DEF00C287120DA4D2872275
:080DF700D287120DA4D286225E
:100D920057723A0052643A003132333435363738BA
:020DA200390016
:1009DA00E4F50878097C00FD7BFF7A0D799AFE7FA1
:1009EA000A1208D07B107D027F08120A827F011248
:1009FA000D7D7BFF7A0D7992120C9B7B007A007930
:100A0A0009120A357A007909120B037F02120D7D49
:100A1A007BFF7A0D7996120A357A007913120BE761
:0B0A2A007B007A007913120C9B80C245
:0A0A3500120C9BAF087E007B00222C
:070DFF0005338080C090D095
:0B0DDA005380FD4380047F0A7E00224E
:100A8200E4F5A0F5808F318B308D2FEDD3940240A9
:100A92000DEB540FFF2490F536EF24D0F5377F6429
:100AA2007E00120D4FE531B408047F38800AE5312B
:100AB200B40408120B7D7F28120C497F0E120C49D8
:030AC200020DE53D
:0A0DE5007F01120C497F01020D7D11
:100D7D00EFD3952F500EE4F5388F3274332FF8E6FC
:050D8D00FF120C4922D9
:100D36000532E4F538E532D3952F40037532017458
:090D4600332532F8E6FF020C49E6
:100C49008F26120AC5E531B408058526A08016E568
:100C590031B40414AF26120C19120DB4E526C4548C
:090C6900F0FF120C19120DB42267
:100CDF008F25E538C395305005E525B40A03120D6D
:0F0CEF0036E525640A6007AF25120C720538221E
:100C9B008B228A238924AB22AA23A9241208F6606B
:100CAB00130524E5247002052314F91208F6FF122C
:050CBB000CDF80E222C5
:100C72008F26120AC5E531B408058526A08016E53F
:100C820031B40414AF26120C19120DC1E526C45456
:090C9200F0FF120C19120DC12231
:100AC50043A0805380FE438002120AEEE5A030E782
:100AD500047F0180027F008F27E531B40403120AE9
:080AE500EEE52770E453A07F49
:100AED00225380FB7F0A7E00120DCE4380047F0AC5
:060AFD007E00120DCE2266
:100B7D007F30120C19120DB47F647E00120D4F12CE
:100B8D000BA7120DCE120BA7120DCE7F20120C1932
:100B9D00120DB47FC87E00020DCE7F30120C1912DB
:070BAD000DB47FC87E002299
:100C1900EF30E40543A010800353A0EFEF30E50562
:100C290043A020800353A0DFEF30E60543A04080B6
:100C39000353A0BFEF30E70443A0802253A07F22D3
:0D0DB4005380FE120DDA120DCE5380FB228B
:0D0DC100438001120DDA120DCE5380FB228B
:0300000002094EA4
:0C094E00787FE4F6D8FD75813802099529
:10080000E709F608DFFA8046E709F208DFFA803EDA
:1008100088828C83E709F0A3DFFA8032E309F608C7
:10082000DFFA8078E309F208DFFA807088828C832F
:10083000E309F0A3DFFA806489828A83E0A3F608E3
:10084000DFFA805889828A83E0A3F208DFFA804CBD
:1008500080D280FA80C680D4806980F28033801094
:1008600080A680EA809A80A880DA80E280CA8033FD
:1008700089828A83ECFAE493A3C8C582C8CCC58375
:10088000CCF0A3C8C582C8CCC583CCDFE9DEE78045
:100890000D89828A83E493A3F608DFF9ECFAA9F0C4
:1008A000EDFB2289828A83ECFAE0A3C8C582C8CC1A
:1008B000C583CCF0A3C8C582C8CCC583CCDFEADE33
:1008C000E880DB89828A83E493A3F208DFF980CC95
:1008D00088F0EF60010E4E60C388F0ED2402B4048E
:1008E0000050B9F582EB2402B4040050AF23234535
:0608F00082239008507302
:1008F600BB010689828A83E0225002E722BBFE0200
:09090600E32289828A83E4932232
:10090F00BB010CE58229F582E5833AF583E022509D
:10091F0006E92582F8E622BBFE06E92582F8E222E7
:0D092F00E58229F582E5833AF583E4932201
:10093C00BB010689828A83F0225002F722BBFE019A
:02094C00F32294
:10095A000209DAE493A3F8E493A34003F68001F2D0
:10096A0008DFF48029E493A3F85407240CC8C3339E
:10097A00C4540F4420C8834004F456800146F6DF6D
:10098A00E4800B0102040810204080900DFFE47EF1
:10099A00019360BCA3FF543F30E509541FFEE49362
:1009AA00A360010ECF54C025E060A840B8E493A329
:1009BA00FAE493A3F8E493A3C8C582C8CAC583CA54
:1009CA00F0A3C8C582C8CAC583CADFE9DEE780BE0C
:010E060000EB
:00000001FF
