:100000000C942A000C943F000C943F000C943F0089
:100010000C943F000C943F000C943F000C943F0064
:100020000C943F000C943F000C943F000C943F0054
:100030000C943F000C943F000C943F000C943F0044
:100040000C943F000C943F000C943F000C943F0034
:100050000C943F0011241FBECFE5D4E0DEBFCDBF1E
:1000600010E0A0E6B0E0E2E1F2E002C005900D92FF
:10007000A238B107D9F70E9483000C9407010C94B1
:10008000000040E951E009C020E137E2FA01319770
:10009000F1F721503040D1F701970097A9F7089563
:1000A000E199FECF9FBB8EBB6DBBE29AE19A0895AA
:1000B000E199FECF9FBB8EBBE09A8DB308950F935D
:1000C0001F93CF93DF938C01EB01C80168810E94DD
:1000D00050000F5F1F4F89918823B9F7DF91CF91AF
:1000E0001F910F9108959C01FB01E199FECF3FBB49
:1000F0002EBBE09A8DB38083882321F031962F5F49
:100100003F4FF3CF089560E875E280E090E00E94F1
:10011000CB0080E690E00E94DB0088E50E94D700DB
:1001200080E090E068E50E94500081E790E00E9446
:10013000DB0080E090E00E9458000E94D700E9CFE9
:100140009B01AC01DC01CB0180569940A040B0403E
:10015000815A984BA140B04018F027E630E018C013
:1001600060E874E88EE190E0621B730B840B950BE2
:10017000F3E0660F771F881F991FFA95D1F7E4E027
:10018000220F331F441F551FEA95D1F70E94E50047
:1001900029B930BD089528E12AB926E820BD1BB849
:1001A0000E94A00008955F9BFECF8CB108955D9BD7
:1001B000FECF8CB90895FC0104C05D9BFECF319643
:1001C0008CB980818823C9F70895A1E21A2EAA1B51
:1001D000BB1BFD010DC0AA1FBB1FEE1FFF1FA217F7
:1001E000B307E407F50720F0A21BB30BE40BF50BF4
:1001F000661F771F881F991F1A9469F7609570957D
:10020000809590959B01AC01BD01CF010895F894B4
:02021000FFCF1E
:100212000A0D456570726F6D2057726974653A20D8
:10022200002020456570726F6D20526561643A202E
:020232000000CA
:00000001FF
