:100000000C942A000C943F000C943F000C943F0089
:100010000C943F000C943F000C943F000C943F0064
:100020000C943F000C943F000C943F000C943F0054
:100030000C943F000C943F000C943F000C943F0044
:100040000C943F000C943F000C943F000C943F0034
:100050000C943F0011241FBECFE5D8E0DEBFCDBF1A
:1000600010E0A0E6B0E0E2E0F1E002C005900D9201
:10007000A037B107D9F70E9450000C947F000C9470
:10008000000040E951E009C020E137E2FA01319770
:10009000F1F721503040D1F701970097A9F7089563
:1000A000EF92FF920F931F93DF93CF93CDB7DEB7FD
:1000B00060970FB6F894DEBF0FBECDBFDE0111967C
:1000C000E0E6F0E080E101900D928150E1F78FEFE2
:1000D00087BB84BB10E001E07E010894E11CF11CA9
:1000E00005BBF701E10FF11D808188BB81E090E045
:1000F0000E9441001F5F103198F310E0F1CFF89497
:02010000FFCF2F
:100102003F065B4F666D7D077F6F777C395E797145
:00000001FF
