:100000000C942A000C9434000C9434000C943400AA
:100010000C9434000C9434000C9434000C94340090
:100020000C9434000C9434000C9434000C94340080
:100030000C9434000C9434000C9434000C94340070
:100040000C9434000C9434000C9434000C94340060
:100050000C94340011241FBECFE5D4E0DEBFCDBF29
:100060000E9436000C94A7000C94000060E875E232
:1000700080E090E00E946B0081E60E947700FCCF58
:100080009B01AC01DC01CB0180569940A040B040FF
:10009000815A984BA140B04018F027E630E018C0D4
:1000A00060E874E88EE190E0621B730B840B950BA3
:1000B000F3E0660F771F881F991FFA95D1F7E4E0E8
:1000C000220F331F441F551FEA95D1F70E94850068
:1000D00029B930BD089528E12AB926E820BD1BB80A
:1000E0000E94400008955F9BFECF8CB108955D9BF8
:1000F000FECF8CB90895FC0104C05D9BFECF319604
:100100008CB980818823C9F70895A1E21A2EAA1B11
:10011000BB1BFD010DC0AA1FBB1FEE1FFF1FA217B7
:10012000B307E407F50720F0A21BB30BE40BF50BB4
:10013000661F771F881F991F1A9469F7609570953D
:10014000809590959B01AC01BD01CF010895F89475
:02015000FFCFDF
:00000001FF
