:100000000A128A11DE2F00308A000408840A82074F
:100010000034683465346C346C346F342C342034E0
:1000200077346F3472346C346434003467346F3432
:100030006F34643420346D346F3472346E34693408
:060040006E346734003449
:100AEA0080348034C0349034D034710870040319CF
:100AFA0008000130F0020030031CF103F1027A2DE4
:100B0A0001300A128A1180260A128A1101300A1249
:100B1A008A11A425080073087204031908002C30EE
:100B2A00F0000130F1000A128A117A250A128A119C
:100B3A000130F2020030031CF303F302902DF70098
:100B4A007708831203132502031C0800A8017708FB
:100B5A00F6007608A9007708203E8400831300086F
:100B6A000A128A11802608000130F60076088312DC
:100B7A000313A907A801290825020318C62DA901EC
:100B8A00A90A2908203E8400831300080A128A1140
:100B9A0080260800831203130814FD30F20072083D
:100BAA00880508150A30F0000030F1000A128A118F
:100BBA007A25FB30F20072088312031388050800B5
:100BCA00FE30F2007208831203138805FD30F2002A
:100BDA007208880508150A30F0000030F1000A1280
:100BEA008A117A25FB30F2007208831203138805F2
:100BFA000800FA007A0884000A128A1103200A12ED
:100C0A008A110038031908007A0884000A128A1126
:100C1A0003200A128A110A128A111A260A128A1142
:100C2A000130F9007908FA07FF2DF800831203133F
:100C3A00260828020318252E78080A3A031D2A2EA8
:100C4A000A128A11B9250A128A1178080A3A03196E
:100C5A00080078080A128A11B6260130F7007708C8
:100C6A0083120313A80708000230FC007C08F8006E
:100C7A001030FD007D08F90008300A128A113B275E
:100C8A000A128A1101300A128A11FE250A128A11E1
:100C9A0002300A128A11A4250A128A110E300A1287
:100CAA008A11FE250A128A11592EF100711E612E2F
:100CBA00831203130716672EEF30F00070088312B1
:100CCA0003138705F11E6B2E87166F2EDF30F00097
:100CDA0070088705711F732E0717772EBF30F00033
:100CEA0070088705F11F7B2E871708007F30F000F8
:100CFA00700887050800F5000A128A118A270A1265
:100D0A008A11831203132708083A031D922E7508C5
:100D1A0087000A128A11E52508008312031327089F
:100D2A00043A031D080075080A128A115A260A1283
:100D3A008A110A128A11E5250A128A117508F40025
:100D4A0003300310F40DFF3E031DA62E0310740D8D
:100D5A000A128A115A260A128A110A128A11E525DA
:100D6A000800F5000A128A118A270A128A118312C8
:100D7A0003132708083A031DC82E750887000A12AC
:100D8A008A11CF250800831203132708043A031D8A
:100D9A00080075080A128A115A260A128A110A12BA
:100DAA008A11CF250A128A117508F400033003103C
:100DBA00F40DFF3E031DDC2E0310740D0A128A1176
:100DCA005A260A128A110A128A11CF2508003030CF
:100DDA000A128A115A260A128A110A128A11E5255A
:100DEA000A128A116430F2000030F3000A128A11E2
:100DFA0090250A128A1130300A128A115A260A12CA
:100E0A008A110A128A11E5250A128A11C830F000DD
:100E1A000030F1000A128A117A250A128A1130303A
:100E2A000A128A115A260A128A110A128A11E52509
:100E3A000A128A11C830F0000030F1000A128A1131
:100E4A007A250A128A1120300A128A115A260A129F
:100E5A008A110A128A11E5250A128A11C830F0008D
:100E6A000030F1000A128A117A250800FB00831665
:100E7A000313870188017B08FA007A088312031397
:100E8A00A7007908FA007A08A6007808FA007A0812
:100E9A00A50003307802031C5E2F79080F39903EB3
:100EAA00FA007A08A30079080F39D03EFA007A08C6
:100EBA00A4006430F2000030F3000A128A1190256F
:100ECA000A128A11831203132708083A031D6F2F87
:100EDA0038307B2F831203132708043A031D802F0F
:100EEA000A128A11EC260A128A1128300A128A1169
:100EFA0080260A128A110E300A128A1180260A12D4
:100F0A008A110A128A118525080083160313871786
:100F1A00FE30F20072088312031388058814FB302E
:100F2A00F20072088312031388050A30F0000030B9
:100F3A00F1000A128A117A250A128A1183120313FE
:100F4A0008150A30F0000030F1000A128A117A25D9
:100F5A000A128A11003083120313871B0130F20030
:100F6A007208F3002708043A031DD42FFB30F2005D
:100F7A00720888050A30F0000030F1000A128A115E
:100F8A007A250A128A118312031308150A30F0000F
:100F9A000030F1000A128A117A250A128A11F3081E
:100FAA00031D942F7F30F2007208831603138705FE
:100FBA000800A801A9010A128A1175250A128A11C4
:100FCA00A0000A128A1176250A128A11A1000A12B1
:100FDA008A1177250A128A11A2000A128A11782523
:100FEA000A128A11A3000A128A117925A400830120
:060FFA000A128A11392ED3
:02400E00BAFFF7
:00000001FF
