:0C101500EF4E6007EF1F70F81E80F52200
:100FD700AD07AC06ED4C600E7F707E00121015ED6C
:070FE7001D70F11C80EE22D9
:100FEE00AB07AA06EB4A600E7FE87E03120FD7EB23
:070FFE001B70F11A80EE22C6
:020F29008D1B1E
:100F2B00751EA0C3EE94025026EFF51CAF06EE25FE
:100F3B00E0421E120F9FAF1E120F80AF1C120F80CC
:0F0F4B00AF1B120F80120FBC7F0A7E00120FD750
:010F5A002274
:100E2C00E4F51D751EA0C3EE94025033EFF51BAF15
:100E3C0006EE25E0421E120F9FAF1E120F80AF1B55
:100E4C00120F80120F9FE51E4401FF120F80E4FF6A
:100E5C00120EEC8F1D120FBC7F0A7E00121015AF04
:010E6C001D68
:010E6D002262
:100E6E008E148F158B168A178918E51A4519602E60
:100E7E00AB16AA17A918120800FDAF15AE14120F63
:100E8E00290515E5157002051474012518F518E4E9
:0F0E9E003517F517E51A151A70D0151980CC22E3
:100EAD008E148F158B168A178918E51A4519602E21
:100EBD00AF15AE14120E2CAB16AA17A918EF120807
:100ECD00190515E5157002051474012518F518E4BA
:0F0EDD003517F517E51A151A70D0151980CC22A4
:07105800D2867F017E002219
:01105F00226E
:100F9F00C286D2877F017E001210151210581210D0
:0D0FAF0015C2877F017E00121015C2862238
:100FBC00C2867F017E00121015C2877F017E00124F
:0B0FCC001015121058121015D28722C9
:020F80008F1FC1
:100F8200E4F520E51F339287121005E51F25E0F5F1
:0D0F92001F0520E520C3940840E90210056A
:020EEC008F1F56
:100EEE00E4F521D287F5207F017E00121015121035
:100EFE0058121015E52125E0F521A287E433422191
:100F0E00C2860520E520C3940840DCE51FB4010528
:0A0F1E001210388003121040AF21BA
:010F280022A6
:101005007F017E00121015121058121015C286228B
:08103800C287121005D28722C5
:08104000D287121005D28622AE
:100D2C000A0D31362D626974204E756D6265722024
:100D3C00202072656164207772697465000A0D5712
:100D4C00723A2575000A0D52643A2575000A0D3366
:100D5C00322D626974204E756D626572202020728E
:100D6C00656164207772697465000A0D57723A25C3
:0A0D7C0055000A0D52643A25550097
:100BD800750830750939750F15750ECD750D5B756E
:100BE8000C077F807E257D007C0012102D7BFF7A0C
:100BF8000D792C120F5B7A0D7949120C837B007AE0
:100C0800007908751900751A027F327E00120E6E7F
:100C18007B007A00790A751900751A027F327E0006
:100C2800120EAD7A0D7951120C837BFF7A0D79592A
:100C3800120F5B7A0D7976120C717B007A00790CB1
:100C4800751900751A047F647E00120E6E7B007A97
:100C5800007910751900751A047F647E00120EADB4
:090C68007A0D797E120C7180FEF8
:100C71007BFF850F1A850E19850D18850C17120A31
:0E0C810053227BFF850817850918120A53229B
:100DDD00AB2DE52FF92402F52FE52EFA3400F52E73
:100DED0022FFFEAB3FAA3EA93DA83CFDFCC3020974
:100DFD008174012528F528E43527F52722AB2DE54B
:100E0D002FF92404221209928F398E388D378C36A2
:0F0E1D0022AB26A928020800E47B0AFAF9F82282
:0B102D00438920759850D28E020D867A
:080D86008F178E168D158C14D9
:100D8E00E47F607E09AB17AA16A915A814120DF8F8
:100D9E0040367F007EC27D017C00A814D3120981EB
:100DAE005026E47F807E01FDFCA814120856A8048C
:100DBE00A905AA06AB077F007EC07DA87C0012089D
:0E0DCE00E11209738F18800375185D85188D6A
:010DDC0022F4
:081048003098FDC298AF992217
:081050008F993099FDC299222D
:100F5B008B3C8A3D893EAB3CAA3DA93E1208006002
:100F6B0013053EE53E7002053D14F9120800FF1211
:050F7B00105080E2228D
:080C8F008F3F8E3E8D3D8C3C31
:100C9700E4F541120DEE701BF541E541C395405057
:100CA70071E541C3940A506A74422541F8E4F60598
:100CB7004180E7E4F541E541C395405055E4120D05
:100CC700EE6038120E25AF3FAE3EAD3DAC3C12088C
:100CD700E1120E25120856C3E53F9FFF74422541D6
:100CE700F8A607AF3FAE3EAD3DAC3C120E2512084D
:100CF700E18F3F8E3E8D3D8C3C8013E540F46012C2
:100D0700E540D3940A500B74422541F8E4F60541B7
:100D170080A4E541600E2441F8E62430FF1210500C
:040D2700154180EE04
:010D2B0022A5
:060A53008B148A158916C0
:100A5900752D00752E00752F178B268A278928AAD0
:100A690027120E1EFF7003020BD7F53A64256003A7
:100A7900020BCC04120E00FAA928120800F53AC399
:100A8900648094B04037D3E53A648094B9502EE439
:100A9900F53BC3E53A648094B04025D3E53A6480D8
:100AA90094B9501CE53A24D0FFE53B75F00AA42F10
:100AB900F53B120DFEFA120E1EF53A80D5753BFF75
:100AC900E53A1209D20BC8250B98420AFF430B34A9
:100AD900440BA3460BB6530B76550B89580B8B6207
:100AE9000AFF630B0B640BA3660BB6730B63750BE1
:100AF900877800000BD1120DDD12082BF53AFF02A1
:100B09000BCE120DDD12082BFDACF0C3EC64809402
:100B190080500CC3E49DFDE49CFC7F2D121050AE67
:100B290004AF05EE3395E0FDFC804B120E0A120D61
:100B3900E41209928F338E328D318C30EC335010A0
:100B49001209738F338E328D318C307F2D121050F4
:100B5900AF33AE32AD31AC30801C120DDD12082B33
:100B6900F53585F034AE34FFE4FCFD8009120E0A38
:100B7900120DE4120E12853B40120C8F804A80023E
:100B8900800D120DDD12082BF53585F034803912F0
:100B99000E0A120DE4120E12802E120E0A120DE424
:100BA9001209928F2C8E2B8D2A8C29801BAB2DE557
:100BB9002FF92403120DE41209B2120F5B80097F89
:0E0BC900258002AF3A121050120DFE020A688B
:010BD70022FB
:03000000021021CA
:0C102100787FE4F6D8FD75814B020BD8F7
:10080000BB010689828A83E0225002E722BBFE02F6
:09081000E32289828A83E4932229
:10081900BB010689828A83F0225002F722BBFE01BE
:02082900F322B8
:10082B00BB010A89828A83E0F5F0A3E02250068798
:10083B00F009E71922BBFE07E3F5F009E31922895A
:0B084B00828A83E493F5F0740193228D
:10085600E88FF0A4CC8BF0A42CFCE98EF0A42CFC41
:100866008AF0EDA42CFCEA8EF0A4CDA8F08BF0A4BF
:100876002DCC3825F0FDE98FF0A42CCD35F0FCEB1E
:100886008EF0A4FEA9F0EB8FF0A4CFC5F02ECD39E3
:0F089600FEE43CFCEAA42DCE35F0FDE43CFC2250
:1008A50075F008758200EF2FFFEE33FECD33CDCC0A
:1008B50033CCC58233C5829BED9AEC99E58298408D
:1008C5000CF582EE9BFEED9AFDEC99FC0FD5F0D66A
:1008D500E4CEFBE4CDFAE4CCF9A88222B800C1B994
:1008E5000059BA002DEC8BF084CFCECDFCE5F0CBD2
:1008F500F97818EF2FFFEE33FEED33FDEC33FCEB0B
:1009050033FB10D703994004EB99FB0FD8E5E4F9C5
:10091500FA227818EF2FFFEE33FEED33FDEC33FCB2
:10092500C933C910D7059BE99A4007EC9BFCE99AA6
:10093500F90FD8E0E4C9FAE4CCFB2275F010EF2FEB
:10094500FFEE33FEED33FDCC33CCC833C810D707EB
:100955009BEC9AE899400AED9BFDEC9AFCE899F826
:0E0965000FD5F0DAE4CDFBE4CCFAE4C8F922B9
:0E097300C3E49FFFE49EFEE49DFDE49CFC2295
:10098100EB9FF5F0EA9E42F0E99D42F0E89C45F0CC
:010991002243
:10099200BB010789828A83020A045005E9F8020929
:1009A200F8BBFE05E9F8020A1089828A83020A1C52
:1009B200BB010789828A83020A355005E9F8020AD7
:1009C2002CBBFE05E9F8020A3E89828A83020A47A5
:1009D200D083D082F8E4937012740193700DA3A3B4
:1009E20093F8740193F5828883E4737402936860C8
:0609F200EFA3A3A380DFC8
:0C09F800E6FC08E6FD08E6FE08E6FF222B
:0C0A0400E0FCA3E0FDA3E0FEA3E0FF2265
:0C0A1000E2FC08E2FD08E2FE08E2FF2222
:100A1C00E493FC740193FD740293FE740393FF2220
:090A2C00E6FB08E6FA08E6F922EF
:090A3500E0FBA3E0FAA3E0F922C2
:090A3E00E2FB08E2FA08E2F922E9
:0C0A4700E493FB740193FA740293F9220B
:00000001FF
