:100000000C942A000C943F000C943F000C943F0089
:100010000C943F000C943F000C943F000C943F0064
:100020000C943F000C943F000C943F000C943F0054
:100030000C943F000C943F000C943F000C943F0044
:100040000C943F000C943F000C943F000C943F0034
:100050000C943F0011241FBECFE5D4E0DEBFCDBF1E
:1000600010E0A0E6B0E0E2E5F2E002C005900D92FB
:10007000A837B107D9F70E9483000C9427010C948C
:10008000000040E951E009C020E137E2FA01319770
:10009000F1F721503040D1F701970097A9F7089563
:1000A000E199FECF9FBB8EBB6DBBE29AE19A0895AA
:1000B000E199FECF9FBB8EBBE09A8DB308950F935D
:1000C0001F93CF93DF938C01EB01C80168810E94DD
:1000D00050000F5F1F4F89918823B9F7DF91CF91AF
:1000E0001F910F9108959C01FB01E199FECF3FBB49
:1000F0002EBBE09A8DB38083882321F031962F5F49
:100100003F4FF3CF0895EF92FF920F931F93DF932A
:10011000CF93CDB7DEB76B970FB6F894DEBF0FBEA7
:10012000CDBFDE011196ECE6F0E08CE001900D927F
:100130008150E1F760E875E280E090E00E94EB001A
:100140007E010894E11CF11C8E01035F1F4F80E6C5
:1001500090E00E94FB00C7010E94FB0080E090E05D
:10016000B7010E945F0086E690E00E94FB0080E0FD
:1001700090E0B8010E947300C8010E94FB00E7CF25
:100180009B01AC01DC01CB0180569940A040B040FE
:10019000815A984BA140B04018F027E630E018C0D3
:1001A00060E874E88EE190E0621B730B840B950BA2
:1001B000F3E0660F771F881F991FFA95D1F7E4E0E7
:1001C000220F331F441F551FEA95D1F70E940501E6
:1001D00029B930BD089528E12AB926E820BD1BB809
:1001E0000E94C00008955F9BFECF8CB108955D9B77
:1001F000FECF8CB90895FC0104C05D9BFECF319603
:100200008CB980818823C9F70895A1E21A2EAA1B10
:10021000BB1BFD010DC0AA1FBB1FEE1FFF1FA217B6
:10022000B307E407F50720F0A21BB30BE40BF50BB3
:10023000661F771F881F991F1A9469F7609570953C
:10024000809590959B01AC01BD01CF010895F89474
:02025000FFCFDE
:100252000A0D57723A00202052643A0068656C6CAD
:080262006F20776F726C6400DD
:00000001FF
