:0C114D00EF4E6007EF1F70F81E80F522C7
:10110C00AD07AC06ED4C600E7F707E0012114DEDFC
:07111C001D70F11C80EE22A2
:10112300AB07AA06EB4A600E7FE87E0312110CEBB5
:071133001B70F11A80EE228F
:01119000223C
:10109700C286D2877F017E0012114DD2867F017EE4
:1010A7000012114DC2877F017E0012114DC28622A8
:1010D600C2867F017E0012114DC2877F017E0012FB
:0E10E600114DD2867F017E0012114DD287225D
:0210B7008F1791
:1010B900E4F518E51733928712113AE51725E0F59B
:0D10C900170518E518C3940840E902113A14
:020FB4008F1795
:100FB600E4F519D287F5187F017E0012114DD2860D
:100FC6007F017E0012114DE51925E0F519A287E48F
:100FD600334219C2860518E518C3940840D9E517A7
:0D0FE600B401051211708003121178AF19CB
:010FF30022DB
:10113A007F017E0012114DD2867F017E0012114D71
:03114A00C2862238
:08117000C28712113AD2872256
:08117800D28712113AD286223F
:100FF4002054657374696E672052544320000A0DAF
:1010040074696D653A2532783A2532783A25327812
:1010140020200A446174653A2532782F2532782FCE
:0410240025327800F9
:100E30007F807E257D007C001211651210F47BFFFF
:100E40007A0F79F4121028E4FB7D407F1012104DC8
:100E50007B157D017F0112107275110075120075EE
:100E600013097514007515007516087B007A007952
:100E70000A120F1875110075120075130C75140005
:100E800075150075160D7B007A00790B120F667BC5
:100E9000FF7A107902751100850A12751300850911
:100EA00014751500850816751700850B187519003F
:0E0EB000850C1A751B00850D1C120A66809BAE
:0B116500438920759850D28E020EBE08
:080EBE008F118E108D0F8C0EB8
:100EC600E47F607E09FDFCAB11AA10A90FA80EC332
:100ED60012098140367F007EC27D017C00A80ED3B8
:100EE6001209815026E47F807E01FDFCA80E1208BF
:100EF60056A804A905AA06AB077F007EC07DA87C7C
:100F0600001208E11209738F12800375125D8512B3
:010F16008D4D
:010F170022B7
:081180003098FDC298AF9922DE
:081188008F993099FDC29922F4
:101028008B368A378938AB36AA37A9381208006058
:10103800130538E5387002053714F9120800FF1255
:05104800118880E22286
:080CBB008F398E388D378C361D
:100CC300E4F53BFFFEFDFCAB39AA38A937A836C3D0
:100CD3001209817021F53BE53BC3953A4003020DB0
:100CE3006EE53BC3940A4003020D6E743C253BF84A
:100CF300E4F6053B80E1E4F53BE53BC3953A506BF5
:100D0300E4FFFEFDFCAB39AA38A937A836C31209A4
:100D1300816041E47B0AFAF9F8AF39AE38AD37ACFC
:100D2300361208E1E47B0AFAF9F8120856C3E539EA
:100D33009FFF743C253BF8A607AF39AE38AD37ACFF
:100D430036E47B0AFAF9F81208E18F398E388D37C9
:100D53008C368013E53AF46012E53AD3940A500BCB
:100D6300743C253BF8E4F6053B808EE53B600E249E
:0D0D73003BF8E62430FF121188153B80EE9E
:010D80002250
:080D81008F398E388D378C3656
:100D8900E4F53BFFFEFDFCAB39AA38A937A836C309
:100D9900120981701BF53BE53BC3953A5069E53B68
:100DA900C3940A5062743C253BF8E4F6053B80E79E
:100DB900E4F53BE53BC3953A504DE4FFFEFDFCAB42
:100DC90039AA38A937A836C31209816023E53954ED
:100DD9000FFF743C253BF8A607AF39AE38AD37ACE9
:100DE9003678041209928F398E388D378C368013F4
:100DF900E53AF46012E53AD3940A500B743C253B6A
:100E0900F8E4F6053B80ACE53B601B243BF8E6FFC4
:100E1900D394094006EF2437FF8004E62430FF12FB
:060E29001188153B80E179
:010E2F0022A0
:060A66008B0E8A0F8910BF
:100A6C007527007528007529118B208A218922ABE6
:100A7C0020AA21A922120800FF7003020CBAF53437
:100A8C0064256003020CA7042522F522E43521F528
:100A9C0021FAA922120800F534C3648094B04043B3
:100AAC00D3E534648094B9503AE4F535C3E5346445
:100ABC008094B04031D3E534648094B95028E53447
:100ACC0024D0FFE53575F00AA42FF53574012522E5
:100ADC00F522E43521F521AB20FAA922120800F504
:100AEC003480C97535FFE5341209E50CA3250C518A
:100AFC00420B28430B77440C6E460C8B530BD05592
:100B0C000C14580C37620B28630B41640C6E660C8A
:100B1C008B730BB0750BF47800000CACAB27E5298C
:100B2C00F92402F529E528FA3400F52812082BF5EA
:100B3C0034FF020CA9AB27E529F92402F529E52895
:100B4C00FA3400F52812082BFDACF0C3EC64809449
:100B5C0080500CC3E49DFDE49CFC7F2D121188AEEB
:100B6C0004AF05EE3395E0FDFC8074AB27E529F965
:100B7C002404F529E528FA3400F5281209A58F2D4F
:100B8C008E2C8D2B8C2AEC3350101209738F2D8EDA
:100B9C002C8D2B8C2A7F2D121188AF2DAE2CAD2BCA
:100BAC00AC2A803BAB27E529F92402F529E528FA84
:100BBC003400F52812082BF52F85F02EAE2EFFE40D
:100BCC00FCFD801BAB27E529F92404F529E528FA5F
:100BDC003400F5281209A58F338E328D318C308577
:100BEC00353A120CBB020CACAB27E529F92402F503
:100BFC0029E528FA3400F52812082BF52F85F02E5C
:100C0C00AE2EFFE4FCFD801BAB27E529F92404F58F
:100C1C0029E528FA3400F5281209A58F338E328D78
:100C2C00318C3085353A120D818075AB27E529F969
:100C3C002402F529E528FA3400F52812082BF52FA3
:100C4C0085F02E805BAB27E529F92404F529E528EE
:100C5C00FA3400F5281209A58F338E328D318C3081
:100C6C00803EAB27E529F92404F529E528FA340060
:100C7C00F5281209A58F268E258D248C238021AB77
:100C8C0027E529F92403F529E528FA3400F528127B
:100C9C0009C512102880097F258002AF34121188F3
:0E0CAC0074012522F522E43521F521020A7B90
:010CBA002217
:1010F4001211901210977FD01210B77F071210B7F9
:08110400E4FF1210B70210D63F
:10104D008F0E8D0F8B101210977FD01210B7E4FFFB
:10105D001210B7AF101210B7AF0F1210B7AF0E12AC
:05106D0010B70210D6CF
:101072008F0E8D0F8B101210977FD01210B77F0436
:101082001210B7AF0E1210B7AF0F1210B7AF101287
:0510920010B70210D6AA
:100F18008B0E8A0F89101210977FD01210B7E4FF3A
:100F28001210B71210D61210977FD11210B77F0186
:100F3800120FB4AB14AA15A916EF1208197F0112E3
:100F48000FB4AB11AA12A913EF120819E4FF120F7C
:0E0F5800B4AB0EAA0FA910EF1208190210D6A2
:100F66008B0E8A0F89101210977FD01210B77F044C
:100F76001210B71210D61210977FD11210B77F0138
:100F8600120FB4AB0EAA0FA910EF1208197F0112A7
:100F96000FB4AB11AA12A913EF120819E4FF120F2E
:0E0FA600B4AB14AA15A916EF1208190210D642
:0300000002115991
:0C115900787FE4F6D8FD758145020E3069
:10080000BB010689828A83E0225002E722BBFE02F6
:09081000E32289828A83E4932229
:10081900BB010689828A83F0225002F722BBFE01BE
:02082900F322B8
:10082B00BB010A89828A83E0F5F0A3E02250068798
:10083B00F009E71922BBFE07E3F5F009E31922895A
:0B084B00828A83E493F5F0740193228D
:10085600E88FF0A4CC8BF0A42CFCE98EF0A42CFC41
:100866008AF0EDA42CFCEA8EF0A4CDA8F08BF0A4BF
:100876002DCC3825F0FDE98FF0A42CCD35F0FCEB1E
:100886008EF0A4FEA9F0EB8FF0A4CFC5F02ECD39E3
:0F089600FEE43CFCEAA42DCE35F0FDE43CFC2250
:1008A50075F008758200EF2FFFEE33FECD33CDCC0A
:1008B50033CCC58233C5829BED9AEC99E58298408D
:1008C5000CF582EE9BFEED9AFDEC99FC0FD5F0D66A
:1008D500E4CEFBE4CDFAE4CCF9A88222B800C1B994
:1008E5000059BA002DEC8BF084CFCECDFCE5F0CBD2
:1008F500F97818EF2FFFEE33FEED33FDEC33FCEB0B
:1009050033FB10D703994004EB99FB0FD8E5E4F9C5
:10091500FA227818EF2FFFEE33FEED33FDEC33FCB2
:10092500C933C910D7059BE99A4007EC9BFCE99AA6
:10093500F90FD8E0E4C9FAE4CCFB2275F010EF2FEB
:10094500FFEE33FEED33FDCC33CCC833C810D707EB
:100955009BEC9AE899400AED9BFDEC9AFCE899F826
:0E0965000FD5F0DAE4CDFBE4CCFAE4C8F922B9
:0E097300C3E49FFFE49EFEE49DFDE49CFC2295
:10098100EB9FF5F0EA9E42F0E99D42F0E89C45F0CC
:010991002243
:10099200E8600FECC313FCED13FDEE13FEEF13FF43
:0309A200D8F12267
:1009A500BB010789828A83020A175005E9F8020A02
:1009B5000BBBFE05E9F8020A2389828A83020A2F06
:1009C500BB010789828A83020A485005E9F8020AB1
:1009D5003FBBFE05E9F8020A5189828A83020A5A59
:1009E500D083D082F8E4937012740193700DA3A3A1
:1009F50093F8740193F5828883E4737402936860B5
:060A0500EFA3A3A380DFB4
:0C0A0B00E6FC08E6FD08E6FE08E6FF2217
:0C0A1700E0FCA3E0FDA3E0FEA3E0FF2252
:0C0A2300E2FC08E2FD08E2FE08E2FF220F
:100A2F00E493FC740193FD740293FE740393FF220D
:090A3F00E6FB08E6FA08E6F922DC
:090A4800E0FBA3E0FAA3E0F922AF
:090A5100E2FB08E2FA08E2F922D6
:0C0A5A00E493FB740193FA740293F922F8
:00000001FF
