:0C096A00EF4E6007EF1F70F81E80F522B2
:10092C00AD07AC06ED4C600E7F707E0012096AEDCF
:07093C001D70F11C80EE228A
:10094300AB07AA06EB4A600E7FE87E0312092CEB85
:070953001B70F11A80EE2277
:10095A003F065B4F666D7D077F6F777C395E7971E5
:1008F60078087C007D007BFF7A09795A7E007F109C
:100906001208D0E4F518E4F5187590017408251856
:10091600F8E6F5807F017E001209430518E518D335
:06092600940F40E580E0A3
:030000000209767C
:0C097600787FE4F6D8FD7581180208F6C1
:10080000E709F608DFFA8046E709F208DFFA803EDA
:1008100088828C83E709F0A3DFFA8032E309F608C7
:10082000DFFA8078E309F208DFFA807088828C832F
:10083000E309F0A3DFFA806489828A83E0A3F608E3
:10084000DFFA805889828A83E0A3F208DFFA804CBD
:1008500080D280FA80C680D4806980F28033801094
:1008600080A680EA809A80A880DA80E280CA8033FD
:1008700089828A83ECFAE493A3C8C582C8CCC58375
:10088000CCF0A3C8C582C8CCC583CCDFE9DEE78045
:100890000D89828A83E493A3F608DFF9ECFAA9F0C4
:1008A000EDFB2289828A83ECFAE0A3C8C582C8CC1A
:1008B000C583CCF0A3C8C582C8CCC583CCDFEADE33
:1008C000E880DB89828A83E493A3F208DFF980CC95
:1008D00088F0EF60010E4E60C388F0ED2402B4048E
:1008E0000050B9F582EB2402B4040050AF23234535
:0608F00082239008507302
:00000001FF
