:100000000A128A11DE2F00308A000408840A82074F
:10001000003441344434433420344334683461344C
:100020006E346E3465346C3420347A346534723412
:0C0030006F34003425343434753400344F
:1005500080348034C0349034D034831203139F012C
:100560008030831603139F0008007108700403197C
:1005700008000130F0020030031CF103F102B52A3B
:1005800001300A128A11B7230A128A1101300A12A5
:100590008A11F222080083120313A300A201231C74
:1005A000D52A2008A1002108A2070310A00D0310DE
:1005B000A30CA308031DCF2A2208080073087204A5
:1005C000031908002C30F0000130F1000A128A11E2
:1005D000B5220A128A110130F2020030031CF30323
:1005E000F302DE2AF7007708831203135802031C74
:1005F0000800DB017708F6007608DC007708533E38
:100600008400831300080A128A11B72308000130FE
:10061000F600760883120313DC07DB015C0858023E
:100620000318142BDC01DC0A5C08533E840083139E
:1006300000080A128A11B723080083120313081452
:10064000FD30F2007208880508150A30F00000300D
:10065000F1000A128A11B522FB30F20072088312EF
:10066000031388050800FE30F2007208831203139A
:100670008805FD30F2007208880508150A30F00080
:100680000030F1000A128A11B522FB30F200720824
:100690008312031388050800F80083120313590816
:1006A0005B020318572B78080A3A031D5C2B0A12C9
:1006B0008A1107230A128A1178080A3A03190800D6
:1006C00078080A128A11ED230130F70077088312A7
:1006D0000313DB070800F5007508F400023003106F
:1006E000F40DFF3E031D6F2B0310740D83120313D3
:1006F0009F001F143230F0000030F1000A128A11FE
:10070000B5220A128A11831203131F151F19862B93
:100710001E08F301F307831603131E08F201F20704
:100720000800F100711E982B8312031307169E2BED
:10073000EF30F0007008831203138705F11EA22B1F
:100740008716A62BDF30F00070088705711FAA2BD3
:100750000717AE2BBF30F00070088705F11FB22BD2
:10076000871708007F30F000700887050800F50043
:100770000A128A11FA240A128A11831203135A08E0
:10078000083A031DC92B750887000A128A11332302
:100790000800831203135A08043A031D0800750861
:1007A0000A128A1191230A128A110A128A1133231A
:1007B0000A128A117508F40003300310F40DFF3E8D
:1007C000031DDD2B0310740D0A128A1191230A12E6
:1007D0008A110A128A1133230800F5000A128A11BD
:1007E000FA240A128A11831203135A08083A031DC5
:1007F000FF2B750887000A128A111D230800831237
:1008000003135A08043A031D080075080A128A11D6
:1008100091230A128A110A128A111D230A128A11BF
:100820007508F40003300310F40DFF3E031D132C74
:100830000310740D0A128A1191230A128A110A12E6
:100840008A111D230800023083120313CF004F08C2
:10085000F8001030D0005008F90008300A128A1150
:10086000AB240A128A110A128A11AD220A128A11C5
:1008700001300A128A1144260A128A1100300A1223
:100880008A116B230A128A11730883120313D2018F
:10089000D2077208D101D10702300A128A11F2225E
:1008A0000A128A11831203135208B701B7075108BD
:1008B000B601B6071230392C30300A128A11912352
:1008C0000A128A110A128A1133230A128A11643019
:1008D000F2000030F3000A128A11DE220A128A1195
:1008E00030300A128A1191230A128A110A128A11CF
:1008F00033230A128A11C830F0000030F1000A12C6
:100900008A11B5220A128A1130300A128A119123F3
:100910000A128A110A128A1133230A128A11C83064
:10092000F0000030F1000A128A11B5220A128A1171
:1009300020300A128A1191230A128A110A128A118E
:1009400033230A128A11C830F0000030F1000A1275
:100950008A11B5220800FB00831603138701880162
:100960007B08FA007A0883120313DA007908FA0088
:100970007A08D9007808FA007A08D800033078029B
:10098000031CCE2C79080F39903EFA007A08D60065
:1009900079080F39D03EFA007A08D7006430F200A7
:1009A0000030F3000A128A11DE220A128A11831221
:1009B00003135A08083A031DDF2C3830EB2C83123E
:1009C00003135A08043A031DF02C0A128A115C24FE
:1009D0000A128A1128300A128A11B7230A128A11C0
:1009E0000E300A128A11B7230A128A110A128A11CA
:1009F000C0220800831603138717FE30F200720826
:100A00008312031388058814FB30F20072088312E6
:100A1000031388050A30F0000030F1000A128A1131
:100A2000B5220A128A118312031308150A30F00046
:100A30000030F1000A128A11B5220A128A11003020
:100A400083120313871B0130F2007208F3005A0867
:100A5000043A031D442DFB30F200720888050A3069
:100A6000F0000030F1000A128A11B5220A128A1130
:100A70008312031308150A30F0000030F1000A1247
:100A80008A11B5220A128A11F308031D042D7F3042
:100A9000F200720883160313870508000030FC007B
:100AA0000030FB000030FA000030F90073087204D7
:100AB000710470040319A32DFD01FD0AF31B6E2DB3
:100AC0000130F8000310F00DF10DF20DF30DF80BED
:100AD000622D0130F8007808FD075E2D0130F80026
:100AE0000310F90DFA0DFB0DFC0DF80B702D7308BA
:100AF0007702031D852D72087602031D852D71086E
:100B00007502031D852D70087402031C962D700854
:100B1000F4027108031C710FF5027208031C720FB6
:100B2000F6027308031C730FF702791401300310E7
:100B3000F30CF20CF10CF00CFF3E031D972D01306D
:100B4000FD02031D6E2D7C08F3007B08F2007A087D
:100B5000F1007908F000080083120313B50127089B
:100B6000260425042404031DC82DB50128083502D8
:100B70000318402E0A3035020318402E35082B3E4C
:100B80008400831380010130A9002908B507B62D20
:100B9000B501280835020318402E2708260425042D
:100BA000240403191E2E0A30A9002908A0002708D2
:100BB000F7002608F6002508F5002408F4000030A8
:100BC000F3000030F2000030F1000A30F0000A12A9
:100BD0008A114E250A128A1170080A128A11CB2234
:100BE0000A128A11FF3A013E831203132407AA0056
:100BF00035082B3E84002A08831380000030F30060
:100C00000030F2000030F1000A30F0002708F70051
:100C10002608F6002508F5002408F4000A128A11B7
:100C20004E250A128A11730883120313A700720853
:100C3000A6007108A5007008A4002B2E2808FF3A12
:100C40000319402E0B3028020318402E35082B3E86
:100C50008400831380010130A9002908B507C92D3C
:100C60003508FF3E2B3E840083130008303E0A12F5
:100C70008A114C230A128A11013083120313B50220
:100C8000B50803190800302E83120313C400363050
:100C9000B8003808CE004408B8003808CB004B082C
:100CA00084000A128A1103200A128A1100380319DB
:100CB00008004B0884000A128A1103200A128A11C4
:100CC000B8003808CD004D08253A031DD12F01305A
:100CD000B8003808CB074B0884000A128A11032099
:100CE0000A128A11B8003808CD0030304D02031CBA
:100CF000A62E3A304D020318A62ECC0130304D02FC
:100D0000031C9F2F3A304D0203189F2F0A30B80062
:100D10003808A0004C080A128A11CB220A128A1144
:100D2000831203134D07D03EB9003908CC000130BF
:100D3000B8003808CB074B0884000A128A11032038
:100D40000A128A11B8003808CD007E2EFF30B80094
:100D50003808CC009F2F4E08840083130008B80089
:100D60003808CD000230B8003808CE07D12F8312E2
:100D700003134E08840083130008C900840A000886
:100D8000CA000230B8003808CE07CA1FD22EC909DF
:100D9000CA09C90A0319CA0A2D300A128A114C233A
:100DA0000A128A11831203134908A4004A08A500F5
:100DB0000030A51BFF30A600A7004C08B80038087B
:100DC000A8000A128A11AC250A128A11D72F8312A1
:100DD00003134E08840083130008C500840A00082A
:100DE000C600840A0008C700840A0008C80004304E
:100DF000B8003808CE07C81F0E2FC509C609C70995
:100E0000C809C50A0319C60A0319C70A0319C80A7B
:100E10002D300A128A114C230A128A1183120313ED
:100E20004808A7004708A6004608A5004508A400F2
:100E30004C08B8003808A8000A128A11AC250A121A
:100E40008A11D72F831203134E08840083130008DE
:100E5000C200840A0008C3000230B8003808CE0778
:100E60004208A4004308A500A601A7014C08B80049
:100E70003808A8000A128A11AC250A128A11D72F45
:100E8000831203134E08840083130008BE00840AF3
:100E90000008BF00840A0008C000840A0008C100DE
:100EA0000430B8003808CE074108A7004008A60063
:100EB0003F08A5003E08A4004C08B8003808A80068
:100EC0000A128A11AC250A128A11D72F8312031332
:100ED0006A2F742F4E08840083130008C200840A0E
:100EE0000008C3000230992F4E08840083130008C5
:100EF000BE00840A0008BF00840A0008C000840AFB
:100F00000008C1000430992F4E08840083130008A4
:100F1000BA00840A0008BB00840A0008BC00033041
:100F2000992F4E08840083130008B8003808BD00CC
:100F30000130B8003808CE07D72F2530D22F8312C2
:100F400003134D08253A03199D2F673A0319742F8F
:100F5000013A0319AB2E073A0319E72E023A031997
:100F6000842F153A0319912F063A0319402F0D3A91
:100F70000319692F3A3A03196A2F013A0319AB2E64
:100F8000073A0319B72E023A0319842F153A0319A9
:100F9000912F063A0319222F0D3A0319662FD72FE6
:100FA000D72F4D080A128A114C230A128A110130D8
:100FB00083120313B8003808CB074F2EDB01DC0186
:100FC0000A128A11A8220A128A11D3000A128A115F
:100FD000A9220A128A11D4000A128A11AA220A121C
:100FE0008A11D5000A128A11AB220A128A11D60080
:100FF0000A128A11AC22D70083010A128A11232C0B
:02400E00BAFFF7
:00000001FF
