:100000000C942A000C9434000C9434000C943400AA
:100010000C9434000C9434000C9434000C94340090
:100020000C9434000C9434000C9434000C94340080
:100030000C9434000C9434000C9434000C94340070
:100040000C9434000C9434000C9434000C94340060
:100050000C94340011241FBECFE5D8E0DEBFCDBF25
:100060000E9445000C9456000C94000040E951E0B9
:1000700009C020E137E2FA013197F1F72150304011
:10008000D1F701970097A9F708951F938FEF8ABBC7
:1000900087BB84BB81BB10E01BBB18BB15BB12BB6D
:1000A00081E090E00E9436001F5FF6CFF894FFCF0A
:00000001FF
