:100000000A128A11FC2F00308A000408840A820731
:1000100000343534643469346734693474342034DA
:1000200064346534633469346D3461346C34203441
:1000300063346F3475346E347434653472343A34E6
:10004000203400340A340D3425343434753400340B
:1008DC00F000831203130C1E6F2C0C12700899007D
:1008EC00080071087004031908000130F002003090
:1008FC00031CF103F102772C83120313A300A20152
:10090C00231C8C2C2008A1002108A2070310A00D89
:10091C000310A30CA308031D862C220808007308DF
:10092C007204031908002C30F0000130F1000A1297
:10093C008A1177240A128A110130F2020030031C4A
:10094C00F303F302952C7508740403190800E830BE
:10095C00F2000330F3000A128A1195240A128A114C
:10096C000130F4020030031CF503F502A92C803091
:10097C0083160313870020309800903083120313E2
:10098C0098002D08A3002C08A2002B08A1002A080F
:10099C00A0000A128A111425080083120313CF0138
:1009AC00D0010030AD000030AC002530AB00803001
:1009BC00AA000A128A11BD240A128A1101300A12E5
:1009CC008A1162260A128A112730831203135002ED
:1009DC000F3003194F020318132D83120313500801
:1009EC00B701B7074F08B601B6071A300A128A11B9
:1009FC0062260A128A110130F4000030F5000A1246
:100A0C008A11A9240A128A11013083120313CF0709
:100A1C000318D00A0030D007EA2C132D00308312B3
:100A2C0003132302031D242D00302202031D242D49
:100A3C0009302102031D242D60302002031C632D7C
:100A4C0000302302031D342D01302202031D342DEE
:100A5C00C2302102031D342D013020020318632DF6
:100A6C002008A4002108A5002208A6002308A7003E
:100A7C0006300310A40DA50DA60DA70DFF3E031DFA
:100A8C003F2D2708F3002608F2002508F100240862
:100A9C00F0000130F7003130F6002D30F500003059
:100AAC00F4000A128A116C250A128A117008FF3E92
:100ABC0083120313A8002808662D2C30A4002408E8
:100ACC00A900290883160313990008000030FC00C4
:100ADC000030FB000030FA000030F900730872049B
:100AEC00710470040319C12DFD01FD0AF31B8C2D3B
:100AFC000130F8000310F00DF10DF20DF30DF80BB1
:100B0C00802D0130F8007808FD077C2D0130F800AD
:100B1C000310F90DFA0DFB0DFC0DF80B8E2D73085F
:100B2C007702031DA32D72087602031DA32D7108F5
:100B3C007502031DA32D70087402031CB42D7008DC
:100B4C00F4027108031C710FF5027208031C720F7A
:100B5C00F6027308031C730FF702791401300310AB
:100B6C00F30CF20CF10CF00CFF3E031DB52D013013
:100B7C00FD02031D8C2D7C08F3007B08F2007A0823
:100B8C00F1007908F000080083120313B50127085F
:100B9C00260425042404031DE62DB501280835027E
:100BAC0003185E2E0A30350203185E2E35082B3ED4
:100BBC008400831380010130A9002908B507D42DC6
:100BCC00B5012808350203185E2E270826042504D3
:100BDC00240403193C2E0A30A9002908A000270878
:100BEC00F7002608F6002508F5002408F40000306C
:100BFC00F3000030F2000030F1000A30F0000A126D
:100C0C008A116C250A128A1170080A128A11822420
:100C1C000A128A11FF3A013E831203132407AA0019
:100C2C0035082B3E84002A08831380000030F30023
:100C3C000030F2000030F1000A30F0002708F70015
:100C4C002608F6002508F5002408F4000A128A117B
:100C5C006C250A128A11730883120313A7007208F9
:100C6C00A6007108A5007008A400492E2808FF3AB8
:100C7C0003195E2E0B30280203185E2E35082B3E0E
:100C8C008400831380010130A9002908B507E72DE2
:100C9C003508FF3E2B3E840083130008303E0A12B9
:100CAC008A116E240A128A11013083120313B502C1
:100CBC00B508031908004E2E83120313C4003630F6
:100CCC00B8003808CE004408B8003808CB004B08F0
:100CDC0084000A128A1103200A128A11003803199F
:100CEC0008004B0884000A128A1103200A128A1188
:100CFC00B8003808CD004D08253A031DEF2F013000
:100D0C00B8003808CB074B0884000A128A1103205C
:100D1C000A128A11B8003808CD0030304D02031C7D
:100D2C00C42E3A304D020318C42ECC0130304D0283
:100D3C00031CBD2F3A304D020318BD2F0A30B800EA
:100D4C003808A0004C080A128A1182240A128A114F
:100D5C00831203134D07D03EB9003908CC00013083
:100D6C00B8003808CB074B0884000A128A110320FC
:100D7C000A128A11B8003808CD009C2EFF30B8003A
:100D8C003808CC00BD2F4E08840083130008B8002F
:100D9C003808CD000230B8003808CE07EF2F831288
:100DAC0003134E08840083130008C900840A00084A
:100DBC00CA000230B8003808CE07CA1FF02EC90985
:100DCC00CA09C90A0319CA0A2D300A128A116E24DB
:100DDC000A128A11831203134908A4004A08A500B9
:100DEC000030A51BFF30A600A7004C08B80038083F
:100DFC00A8000A128A11CA250A128A11F52F831229
:100E0C0003134E08840083130008C500840A0008ED
:100E1C00C600840A0008C700840A0008C800043011
:100E2C00B8003808CE07C81F2C2FC509C609C7093A
:100E3C00C809C50A0319C60A0319C70A0319C80A3F
:100E4C002D300A128A116E240A128A11831203138E
:100E5C004808A7004708A6004608A5004508A400B6
:100E6C004C08B8003808A8000A128A11CA250A12C0
:100E7C008A11F52F831203134E0884008313000884
:100E8C00C200840A0008C3000230B8003808CE073C
:100E9C004208A4004308A500A601A7014C08B8000D
:100EAC003808A8000A128A11CA250A128A11F52FCD
:100EBC00831203134E08840083130008BE00840AB7
:100ECC000008BF00840A0008C000840A0008C100A2
:100EDC000430B8003808CE074108A7004008A60027
:100EEC003F08A5003E08A4004C08B8003808A8002C
:100EFC000A128A11CA250A128A11F52F83120313BA
:100F0C00882F922F4E08840083130008C200840A95
:100F1C000008C3000230B72F4E088400831300086A
:100F2C00BE00840A0008BF00840A0008C000840ABE
:100F3C000008C1000430B72F4E088400831300084A
:100F4C00BA00840A0008BB00840A0008BC00033005
:100F5C00B72F4E08840083130008B8003808BD0072
:100F6C000130B8003808CE07F52F2530F02F83124A
:100F7C0003134D08253A0319BB2F673A0319922F17
:100F8C00013A0319C92E073A0319052F023A03191E
:100F9C00A22F153A0319AF2F063A03195E2F0D3AFB
:100FAC000319872F3A3A0319882F013A0319C92ECE
:100FBC00073A0319D52E023A0319A22F153A031931
:100FCC00AF2F063A0319402F0D3A0319842FF52F32
:100FDC00F52F4D080A128A116E240A128A1101305B
:100FEC0083120313B8003808CB076D2E83010A1245
:040FFC008A11D32C57
:02400E00BAFFF7
:00000001FF
