:100000000C942A000C9447000C9447000C94470071
:100010000C9447000C9447000C9447000C94470044
:100020000C9447000C9447000C9447000C94470034
:100030000C9447000C9447000C9447000C94470024
:100040000C9447000C9447000C9447000C94470014
:100050000C94470011241FBECFE5D4E0DEBFCDBF16
:1000600010E0A0E6B0E0E0EBF7E002C005900D92F2
:10007000A838B107D9F710E0A8E8B0E001C01D9298
:10008000AD38B107E1F70E9437030C94D6030C9406
:10009000000040E951E009C020E137E2FA01319760
:1000A000F1F721503040D1F701970097A9F7089553
:1000B00011B880E580B984E086BF089584EA86BFE0
:1000C00006B607FEFDCF089584E986BF80E991E07A
:1000D0000197F1F7089583B984E886BF06B607FE55
:1000E000FDCF08958295880F880F807C846886BF35
:1000F00006B607FEFDCF83B10895BF989598969AEE
:1001000030918C0095E39798892F8A95F1F7979A0B
:10011000892F8A95F1F726B3343041F49798892FC7
:100120008A95F1F7979A892F8A95F1F727FDEBCFFA
:10013000BF9A0895982F84FF02C0C49A01C0C49842
:1001400028B395FF02C0C59A01C0C59828B396FF91
:1001500002C0C69A01C0C69898B387FF02C0C79A6A
:1001600001C0C79888B3089595989698979A85E3A3
:100170008A95F1F7979808951F93182F0E947D0094
:1001800080918C00883011F418BB0CC0843061F46D
:10019000812F0E949A000E94B400812F8295807F57
:1001A0000E949A000E94B4001F91089580918900D6
:1001B0008F5F809389001092880090918A00981731
:1001C00018F481E080938900E0918900F0E0E05A22
:1001D000FF4F80810E94BC000895E82F80918A0023
:1001E0008E1750F010928800E0938900F0E0E05AFA
:1001F000FF4F80810E94BC00089581E00E94BC00F6
:1002000081E00E94ED0008950F931F93582F8FEF08
:1002100087BB81BB50938C0040938B0060938A0016
:10022000633040F0842F8F70805780936300805C30
:100230008093640088EE93E020E931E0F901319782
:10024000F1F70197D9F7583011F488E32BC05430F7
:1002500059F580E30E949A000E94B40088EE93E072
:1002600020E931E0F9013197F1F70197D9F780E3FF
:100270000E949A000E94B40000E213E0C8010197B6
:10028000F1F780E30E949A000E94B400C801019730
:10029000F1F780E20E949A000E94B400C801019721
:1002A000F1F788E20E94BC008EE00E94BC000E9430
:1002B000FD001F910F910895959A9698979A85E35E
:1002C0008A95F1F7979808951F93182F90918800B9
:1002D00080918B00981710F41A3021F40E94D600F8
:1002E0001A30D9F00E947D0080918C00883011F482
:1002F00018BB0CC0843061F4812F0E949A000E94C8
:100300005C01812F8295807F0E949A000E945C018F
:10031000809188008F5F809388001F9108950F93CC
:100320001F93DF93CF93CDB7DEB72B970FB6F8941B
:10033000DEBF0FBECDBF8B019C016115710581052C
:10034000910529F090E0BE016F5F7F4F25C0FE014F
:10035000319690E002C011929F5F941770F59A3029
:10036000D1F72BC0011511052105310571F0FB01F5
:10037000E90FF11D802F8F70808384E036952795DB
:10038000179507958A95D1F706C04B30B0F4FB015D
:10039000E90FF11D10829F5F941720F30EC0FE013C
:1003A000E90FF11D80818A3010F0895C01C0805D09
:1003B0009B870E9464019B859150992381F72B961E
:1003C0000FB6F894DEBF0FBECDBFCF91DF911F9166
:1003D0000F910895BF92CF92DF92EF92FF920F9309
:1003E0001F93DF93CF93CDB7DEB72EE0E22EF12C33
:1003F000EC0EFD1E8C859D859C0169019AE0B92E4D
:100400007DC0853209F075C00894C11CD11CF6016D
:100410009081892F80538A3010F04FEF0FC040E059
:1004200009C04B9D402D1124480F0894C11CD11CBC
:10043000F6019081892F80538A3098F39835E1F145
:100440009935B8F4943409F446C0953448F492349C
:1004500009F441C09334F8F4953209F04CC048C017
:10046000933509F440C09535B1F1963409F043C095
:1004700035C0963699F1973638F4933661F0943654
:1004800039F19236C1F524C0953711F1983759F0FA
:10049000933789F528C087010E5F1F4FF7018081D0
:1004A0000E94640113C087010E5F1F4FF701608136
:1004B000718180E090E008C087010C5F1F4FF70159
:1004C00060817181828193810E948F01780113C0C4
:1004D00082E090E005C0E4E0F0E007C084E090E056
:1004E000E80EF91E08C0E2E0F0E0EE0EFF1E03C0C9
:1004F00085E20E9464010894C11CD11CF601808130
:10050000882309F07ECFCF91DF911F910F91FF904B
:10051000EF90DF90CF90BF900895FF920F931F93BD
:10052000182F062FF42E0E945E0080ED0E946B00B3
:1005300084E00E946B00812F0E946B00802F0E943C
:100540006B008F2D0E946B000E9464001F910F9121
:10055000FF900895FF920F931F93F82E062F142FEC
:100560000E945E0080ED0E946B0080E00E946B00A4
:10057000812F0E946B00802F0E946B008F2D0E94A4
:100580006B000E9464001F910F91FF900895CF921D
:10059000DF92EF92FF920F931F938C017B016A0110
:1005A0000E945E0080ED0E946B0084E00E946B0060
:1005B0000E9464000E945E0081ED0E946B0081E059
:1005C0000E947200F801808381E00E947200F701AE
:1005D000808380E00E947200F60180830E946400A4
:1005E0001F910F91FF90EF90DF90CF900895CF92E1
:1005F000DF92EF92FF920F931F936C017B018A01B0
:100600000E945E0080ED0E946B0080E00E946B0003
:100610000E9464000E945E0081ED0E946B0081E0F8
:100620000E947200F801808381E00E947200F7014D
:10063000808380E00E947200F60180830E94640043
:100640001F910F91FF90EF90DF90CF9008950E943F
:1006500058000E945E0080ED0E946B0087E00E94BF
:100660006B0080E00E946B000E94640008952F924E
:100670003F924F925F926F927F928F929F92AF9232
:10068000BF92CF92DF92EF92FF920F931F93DF936F
:10069000CF9300D000D000D0CDB7DEB788E062E0C5
:1006A00040E10E9404010E94270380E160E440E0F1
:1006B0000E94AA0281E061E045E10E948D0253E0C0
:1006C000252E312C2C0E3D1E42E0442E512C4C0E7A
:1006D0005D1E3E010894611C711C35E6832E30E0DE
:1006E000932E24E0A22EB12CAC0EBD1E95E0C92E97
:1006F000D12CCC0EDD1E86E0E82EF12CEC0EFD1E7A
:1007000006E710E081E00E94ED00C101B201A30103
:100710000E94F7028DB79EB708970FB6F8949EBF58
:100720000FBE8DBFEDB7FEB73196ADB7BEB712960F
:100730009C928E9211978B81828313828A8184830B
:1007400015828981868317820E94EA018DB79EB740
:1007500008960FB6F8949EBF0FBE8DBFC501B601B7
:10076000A7010E94C702ADB7BEB718970FB6F8949D
:10077000BEBF0FBEADBFEDB7FEB7319612961C934C
:100780000E9311978C81828313828D8184831582CD
:100790008E81868317820E94EA018DB79EB70896E4
:1007A0000FB6F8949EBF0FBE8DBFACCFF894FFCFAD
:1007B0008080C090D074696D653A2532783A2532D0
:1007C000783A253278000A446174653A2532782FE8
:0807D0002532782F2532780054
:00000001FF
