:0C0CEA00EF4E6007EF1F70F81E80F5222F
:100C7F00AD07AC06ED4C600E7F707E00120CEAEDF6
:070C8F001D70F11C80EE2234
:100C9600AB07AA06EB4A600E7FE87E03120C7FEBD9
:070CA6001B70F11A80EE2221
:0C0CF6004C63645F436F756E74657200A0
:100ADA00E4F508F5097B107D027F08120B217BFFE4
:100AEA007A0C79F6120C22C3E509940FE5089427CB
:100AFA0050237F02120CADAE08AF09E4FCFD750E5F
:100B0A00041209477F017E00120C960509E5097057
:070B1A00D6050880D280FE21
:070D0C0005218080C090D09A
:100B2100E4F5A0F5808F1F8B1E8D1DEDD39402403F
:100B31000DEB540FFF2490F524EF24D0F5257F64AD
:100B41007E00120C7FE51FB408047F38800AE51F80
:100B5100B40408120B647F28120BD07F0E120BD045
:030B6100020D0280
:0A0D02007F01120BD07F01020CAD3F
:100CAD00EFD3951D500EE4F5268F2074212FF8E615
:050CBD00FF120BD02224
:100C66000520E4F526E520D3951D40037520017483
:090C7600212520F8E6FF020BD055
:100BD0008F1B120A8FE51FB40805851BA08016E540
:100BE0001FB40414AF1B120BA0120CC2E51BC4549B
:090BF000F0FF120BA0120CC2224E
:100C47008F1AE526C3951E5005E51AB40A03120C40
:0F0C570066E51A640A6007AF1A120BF905262228
:100C22008B0A8A0B890CAB0AAA0BA90C120800606A
:100C320013050CE50C7002050B14F9120800FF12E3
:050C42000C4780E222D6
:080947008F0D8E0C8D0B8C0A44
:10094F00E4F50FFFFEFDFCAB0DAA0CA90BA80AC323
:10095F001209367017F50FE50FC3950E4003020904
:10096F00F07410250FF8E4F6050F80EBE4F50FE5B2
:10097F000FC3950E506BE4FFFEFDFCAB0DAA0CA947
:10098F000BA80AC31209366041E47B0AFAF9F8AFE3
:10099F000DAE0CAD0BAC0A1208A4E47B0AFAF9F801
:1009AF00120819C3E50D9FFF7410250FF8A607AFA6
:1009BF000DAE0CAD0BAC0AE47B0AFAF9F81208A4E1
:1009CF008F0D8E0C8D0B8C0A8013E50EF46012E5E3
:1009DF000ED3940A500B7410250FF8E4F6050F8010
:1009EF008EE50F600E240FF8E62430FF120C47152A
:0309FF000F80EE78
:010A020022D1
:100BF9008F1B120A8FE51FB40805851BA08016E517
:100C09001FB40414AF1B120BA0120CD6E51BC4545D
:090C1900F0FF120BA0120CD62210
:100A8F0043A0805380FE4380025380FB7F0A7E0089
:100A9F00120CEA4380047F0A7E00120CEAE5A030B4
:100AAF00E7047F0180027F008F1CE51FB4041453FD
:100ABF0080FB7F0A7E00120CEA4380047F0A7E00CF
:0A0ACF00120CEAE51C70C253A07F70
:010AD90022FA
:100B64007F30120BA0120CC27F647E00120C7F7FB8
:100B740030120BA0120CC27FC87E00120CEA7F3028
:100B8400120BA0120CC27FC87E00120CEA7F201246
:0C0B94000BA0120CC27FC87E00020CEA0D
:100BA000EF30E40543A010800353A0EFEF30E505DC
:100BB00043A020800353A0DFEF30E60543A0408030
:100BC0000353A0BFEF30E70443A0802253A07F224D
:100CC2005380FE5380FD4380047F0A7E00120CEAAB
:040CD2005380FB222E
:100CD6004380015380FD4380047F0A7E00120CEAA4
:040CE6005380FB221A
:03000000020A03EE
:0C0A0300787FE4F6D8FD758126020A4ACF
:10080000BB010689828A83E0225002E722BBFE02F6
:09081000E32289828A83E4932229
:10081900E88FF0A4CC8BF0A42CFCE98EF0A42CFC7E
:100829008AF0EDA42CFCEA8EF0A4CDA8F08BF0A4FC
:100839002DCC3825F0FDE98FF0A42CCD35F0FCEB5B
:100849008EF0A4FEA9F0EB8FF0A4CFC5F02ECD3920
:0F085900FEE43CFCEAA42DCE35F0FDE43CFC228D
:1008680075F008758200EF2FFFEE33FECD33CDCC47
:1008780033CCC58233C5829BED9AEC99E5829840CA
:100888000CF582EE9BFEED9AFDEC99FC0FD5F0D6A7
:10089800E4CEFBE4CDFAE4CCF9A88222B800C1B9D1
:1008A8000059BA002DEC8BF084CFCECDFCE5F0CB0F
:1008B800F97818EF2FFFEE33FEED33FDEC33FCEB48
:1008C80033FB10D703994004EB99FB0FD8E5E4F903
:1008D800FA227818EF2FFFEE33FEED33FDEC33FCF0
:1008E800C933C910D7059BE99A4007EC9BFCE99AE4
:1008F800F90FD8E0E4C9FAE4CCFB2275F010EF2F29
:10090800FFEE33FEED33FDCC33CCC833C810D70728
:100918009BEC9AE899400AED9BFDEC9AFCE899F863
:0E0928000FD5F0DAE4CDFBE4CCFAE4C8F922F6
:10093600EB9FF5F0EA9E42F0E99D42F0E89C45F017
:01094600228E
:100A0F00020ADAE493A3F8E493A34003F68001F219
:100A1F0008DFF48029E493A3F85407240CC8C333E8
:100A2F00C4540F4420C8834004F456800146F6DFB7
:100A3F00E4800B0102040810204080900D0CE47E2E
:100A4F00019360BCA3FF543F30E509541FFEE493AC
:100A5F00A360010ECF54C025E060A840B8E493A373
:100A6F00FAE493A3F8E493A3C8C582C8CAC583CA9E
:100A7F00F0A3C8C582C8CAC583CADFE9DEE780BE56
:010D130000DF
:00000001FF
